{
  "_format": "hh-sol-artifact-1",
  "contractName": "TokenizedBallot",
  "sourceName": "contracts/TokenizedBallot.sol",
  "abi": [
    {
      "inputs": [
        {
          "internalType": "address",
          "name": "_tokenContract",
          "type": "address"
        },
        {
          "internalType": "uint256",
          "name": "_targetBlockNumber",
          "type": "uint256"
        },
        {
          "internalType": "bytes32[]",
          "name": "proposalNames",
          "type": "bytes32[]"
        }
      ],
      "stateMutability": "nonpayable",
      "type": "constructor"
    },
    {
      "inputs": [
        {
          "internalType": "uint256",
          "name": "",
          "type": "uint256"
        }
      ],
      "name": "proposals",
      "outputs": [
        {
          "internalType": "bytes32",
          "name": "name",
          "type": "bytes32"
        },
        {
          "internalType": "uint256",
          "name": "voteCount",
          "type": "uint256"
        }
      ],
      "stateMutability": "view",
      "type": "function"
    },
    {
      "inputs": [],
      "name": "targetBlockNumber",
      "outputs": [
        {
          "internalType": "uint256",
          "name": "",
          "type": "uint256"
        }
      ],
      "stateMutability": "view",
      "type": "function"
    },
    {
      "inputs": [],
      "name": "tokenContract",
      "outputs": [
        {
          "internalType": "contract IVoteToken",
          "name": "",
          "type": "address"
        }
      ],
      "stateMutability": "view",
      "type": "function"
    },
    {
      "inputs": [
        {
          "internalType": "uint256",
          "name": "proposal",
          "type": "uint256"
        },
        {
          "internalType": "uint256",
          "name": "amount",
          "type": "uint256"
        }
      ],
      "name": "vote",
      "outputs": [],
      "stateMutability": "nonpayable",
      "type": "function"
    },
    {
      "inputs": [
        {
          "internalType": "address",
          "name": "account",
          "type": "address"
        }
      ],
      "name": "votingPower",
      "outputs": [
        {
          "internalType": "uint256",
          "name": "",
          "type": "uint256"
        }
      ],
      "stateMutability": "view",
      "type": "function"
    },
    {
      "inputs": [
        {
          "internalType": "address",
          "name": "",
          "type": "address"
        }
      ],
      "name": "votingPowerSpent",
      "outputs": [
        {
          "internalType": "uint256",
          "name": "",
          "type": "uint256"
        }
      ],
      "stateMutability": "view",
      "type": "function"
    },
    {
      "inputs": [],
      "name": "winnerName",
      "outputs": [
        {
          "internalType": "bytes32",
          "name": "winnerName_",
          "type": "bytes32"
        }
      ],
      "stateMutability": "view",
      "type": "function"
    },
    {
      "inputs": [],
      "name": "winningProposal",
      "outputs": [
        {
          "internalType": "uint256",
          "name": "winningProposal_",
          "type": "uint256"
        }
      ],
      "stateMutability": "view",
      "type": "function"
    }
  ],
  "bytecode": "0x60806040523480156200001157600080fd5b5060405162000e0838038062000e08833981810160405281019062000037919062000384565b82600160006101000a81548173ffffffffffffffffffffffffffffffffffffffff021916908373ffffffffffffffffffffffffffffffffffffffff1602179055508160028190555060005b8151811015620001165760006040518060400160405280848481518110620000af57620000ae620003ff565b5b60200260200101518152602001600081525090806001815401808255809150506001900390600052602060002090600202016000909190919091506000820151816000015560208201518160010155505080806200010d906200045d565b91505062000082565b50505050620004aa565b6000604051905090565b600080fd5b600080fd5b600073ffffffffffffffffffffffffffffffffffffffff82169050919050565b6000620001618262000134565b9050919050565b620001738162000154565b81146200017f57600080fd5b50565b600081519050620001938162000168565b92915050565b6000819050919050565b620001ae8162000199565b8114620001ba57600080fd5b50565b600081519050620001ce81620001a3565b92915050565b600080fd5b6000601f19601f8301169050919050565b7f4e487b7100000000000000000000000000000000000000000000000000000000600052604160045260246000fd5b6200022482620001d9565b810181811067ffffffffffffffff82111715620002465762000245620001ea565b5b80604052505050565b60006200025b62000120565b905062000269828262000219565b919050565b600067ffffffffffffffff8211156200028c576200028b620001ea565b5b602082029050602081019050919050565b600080fd5b6000819050919050565b620002b781620002a2565b8114620002c357600080fd5b50565b600081519050620002d781620002ac565b92915050565b6000620002f4620002ee846200026e565b6200024f565b905080838252602082019050602084028301858111156200031a57620003196200029d565b5b835b81811015620003475780620003328882620002c6565b8452602084019350506020810190506200031c565b5050509392505050565b600082601f830112620003695762000368620001d4565b5b81516200037b848260208601620002dd565b91505092915050565b600080600060608486031215620003a0576200039f6200012a565b5b6000620003b08682870162000182565b9350506020620003c386828701620001bd565b925050604084015167ffffffffffffffff811115620003e757620003e66200012f565b5b620003f58682870162000351565b9150509250925092565b7f4e487b7100000000000000000000000000000000000000000000000000000000600052603260045260246000fd5b7f4e487b7100000000000000000000000000000000000000000000000000000000600052601160045260246000fd5b60006200046a8262000199565b91507fffffffffffffffffffffffffffffffffffffffffffffffffffffffffffffffff82036200049f576200049e6200042e565b5b600182019050919050565b61094e80620004ba6000396000f3fe608060405234801561001057600080fd5b50600436106100885760003560e01c8063a72003511161005b578063a720035114610118578063b384abef14610148578063c07473f614610164578063e2ba53f01461019457610088565b8063013cf08b1461008d5780632a8cd29e146100be57806355a373d6146100dc578063609ff1bd146100fa575b600080fd5b6100a760048036038101906100a291906104f4565b6101b2565b6040516100b5929190610549565b60405180910390f35b6100c66101e6565b6040516100d39190610572565b60405180910390f35b6100e46101ec565b6040516100f1919061060c565b60405180910390f35b610102610212565b60405161010f9190610572565b60405180910390f35b610132600480360381019061012d9190610665565b61029a565b60405161013f9190610572565b60405180910390f35b610162600480360381019061015d9190610692565b6102b2565b005b61017e60048036038101906101799190610665565b610393565b60405161018b9190610572565b60405180910390f35b61019c610486565b6040516101a991906106d2565b60405180910390f35b600081815481106101c257600080fd5b90600052602060002090600202016000915090508060000154908060010154905082565b60025481565b600160009054906101000a900473ffffffffffffffffffffffffffffffffffffffff1681565b6000806000905060005b60008054905081101561029557816000828154811061023e5761023d6106ed565b5b9060005260206000209060020201600101541115610282576000818154811061026a576102696106ed565b5b90600052602060002090600202016001015491508092505b808061028d9061074b565b91505061021c565b505090565b60036020528060005260406000206000915090505481565b806102bc33610393565b10156102fd576040517f08c379a00000000000000000000000000000000000000000000000000000000081526004016102f490610816565b60405180910390fd5b80600360003373ffffffffffffffffffffffffffffffffffffffff1673ffffffffffffffffffffffffffffffffffffffff168152602001908152602001600020600082825461034c9190610836565b925050819055508060008381548110610368576103676106ed565b5b906000526020600020906002020160010160008282546103889190610836565b925050819055505050565b6000600360008373ffffffffffffffffffffffffffffffffffffffff1673ffffffffffffffffffffffffffffffffffffffff16815260200190815260200160002054600160009054906101000a900473ffffffffffffffffffffffffffffffffffffffff1673ffffffffffffffffffffffffffffffffffffffff16633a46b1a8846002546040518363ffffffff1660e01b8152600401610434929190610879565b602060405180830381865afa158015610451573d6000803e3d6000fd5b505050506040513d601f19601f8201168201806040525081019061047591906108b7565b61047f91906108e4565b9050919050565b600080610491610212565b815481106104a2576104a16106ed565b5b906000526020600020906002020160000154905090565b600080fd5b6000819050919050565b6104d1816104be565b81146104dc57600080fd5b50565b6000813590506104ee816104c8565b92915050565b60006020828403121561050a576105096104b9565b5b6000610518848285016104df565b91505092915050565b6000819050919050565b61053481610521565b82525050565b610543816104be565b82525050565b600060408201905061055e600083018561052b565b61056b602083018461053a565b9392505050565b6000602082019050610587600083018461053a565b92915050565b600073ffffffffffffffffffffffffffffffffffffffff82169050919050565b6000819050919050565b60006105d26105cd6105c88461058d565b6105ad565b61058d565b9050919050565b60006105e4826105b7565b9050919050565b60006105f6826105d9565b9050919050565b610606816105eb565b82525050565b600060208201905061062160008301846105fd565b92915050565b60006106328261058d565b9050919050565b61064281610627565b811461064d57600080fd5b50565b60008135905061065f81610639565b92915050565b60006020828403121561067b5761067a6104b9565b5b600061068984828501610650565b91505092915050565b600080604083850312156106a9576106a86104b9565b5b60006106b7858286016104df565b92505060206106c8858286016104df565b9150509250929050565b60006020820190506106e7600083018461052b565b92915050565b7f4e487b7100000000000000000000000000000000000000000000000000000000600052603260045260246000fd5b7f4e487b7100000000000000000000000000000000000000000000000000000000600052601160045260246000fd5b6000610756826104be565b91507fffffffffffffffffffffffffffffffffffffffffffffffffffffffffffffffff82036107885761078761071c565b5b600182019050919050565b600082825260208201905092915050565b7f546f6b656e697a656442616c6c6f743a20747279696e6720746f20766f74652060008201527f6d6f7265207468616e20616c6c6f776564000000000000000000000000000000602082015250565b6000610800603183610793565b915061080b826107a4565b604082019050919050565b6000602082019050818103600083015261082f816107f3565b9050919050565b6000610841826104be565b915061084c836104be565b92508282019050808211156108645761086361071c565b5b92915050565b61087381610627565b82525050565b600060408201905061088e600083018561086a565b61089b602083018461053a565b9392505050565b6000815190506108b1816104c8565b92915050565b6000602082840312156108cd576108cc6104b9565b5b60006108db848285016108a2565b91505092915050565b60006108ef826104be565b91506108fa836104be565b92508282039050818111156109125761091161071c565b5b9291505056fea264697066735822122073f2406c9ed2cf4f7025866706a12cc9d32eb52e4ab27c02ff71c3e243dfa0a164736f6c63430008130033",
  "linkReferences": {},
  "deployedLinkReferences": {}
}